{
  "_format": "hh-sol-artifact-1",
  "contractName": "TestONLYV3ReentrantCallee",
  "sourceName": "contracts/test/TestONLYV3ReentrantCallee.sol",
  "abi": [
    {
      "inputs": [
        {
          "internalType": "int256",
          "name": "",
          "type": "int256"
        },
        {
          "internalType": "int256",
          "name": "",
          "type": "int256"
        },
        {
          "internalType": "bytes",
          "name": "",
          "type": "bytes"
        }
      ],
      "name": "ONLYV3SwapCallback",
      "outputs": [],
      "stateMutability": "nonpayable",
      "type": "function"
    },
    {
      "inputs": [
        {
          "internalType": "address",
          "name": "pool",
          "type": "address"
        }
      ],
      "name": "swapToReenter",
      "outputs": [],
      "stateMutability": "nonpayable",
      "type": "function"
    }
  ],
  "bytecode": "0x608060405234801561001057600080fd5b50610f84806100206000396000f3fe608060405234801561001057600080fd5b50600436106100365760003560e01c8063b32b6f751461003b578063c22a2bfe146100b9575b600080fd5b6100b76004803603606081101561005157600080fd5b81359160208101359181019060608101604082013564010000000081111561007857600080fd5b82018360208201111561008a57600080fd5b803590602001918460018302840111640100000000831117156100ac57600080fd5b5090925090506100ec565b005b6100b7600480360360208110156100cf57600080fd5b503573ffffffffffffffffffffffffffffffffffffffff16610da5565b6040805160008082526020820192839052630251596160e31b835260248201818152604483018290526001606484018190526084840183905260a060a48501908152845160c48601819052339663128acb0896869586949193909260e4850191808383895b83811015610169578181015183820152602001610151565b50505050905090810190601f1680156101965780820380516001836020036101000a031916815260200191505b5096505050505050506040805180830381600087803b1580156101b857600080fd5b505af19250505080156101e457506040513d60408110156101d857600080fd5b50805160209091015160015b610347576101f0610ed1565b806101fb5750610338565b604051806040016040528060038152602001624c4f4b60e81b8152506040516020018080602001828103825283818151815260200191508051906020019080838360005b8381101561025757818101518382015260200161023f565b50505050905090810190601f1680156102845780820380516001836020036101000a031916815260200191505b509250505060405160208183030381529060405280519060200120816040516020018080602001828103825283818151815260200191508051906020019080838360005b838110156102e05781810151838201526020016102c8565b50505050905090810190601f16801561030d5780820380516001836020036101000a031916815260200191505b5092505050604051602081830303815290604052805190602001201461033257600080fd5b50610342565b3d6000803e3d6000fd5b61034a565b50505b6040805160008082526020820192839052633c8a7d8d60e01b83526024820181815260448301829052606483018290526084830182905260a060a48401908152835160c485018190523395633c8a7d8d9585948594859492939192909160e4850191808383895b838110156103c95781810151838201526020016103b1565b50505050905090810190601f1680156103f65780820380516001836020036101000a031916815260200191505b5096505050505050506040805180830381600087803b15801561041857600080fd5b505af192505050801561044457506040513d604081101561043857600080fd5b50805160209091015160015b61059857610450610ed1565b8061045b5750610338565b604051806040016040528060038152602001624c4f4b60e81b8152506040516020018080602001828103825283818151815260200191508051906020019080838360005b838110156104b757818101518382015260200161049f565b50505050905090810190601f1680156104e45780820380516001836020036101000a031916815260200191505b509250505060405160208183030381529060405280519060200120816040516020018080602001828103825283818151815260200191508051906020019080838360005b83811015610540578181015183820152602001610528565b50505050905090810190601f16801561056d5780820380516001836020036101000a031916815260200191505b5092505050604051602081830303815290604052805190602001201461059257600080fd5b5061059b565b50505b604080516309e3d67b60e31b81526000600482018190526024820181905260448201819052606482018190526084820181905282513393634f1eb3d89360a480820194929392918390030190829087803b1580156105f857600080fd5b505af192505050801561062457506040513d604081101561061857600080fd5b50805160209091015160015b61077857610630610ed1565b8061063b5750610338565b604051806040016040528060038152602001624c4f4b60e81b8152506040516020018080602001828103825283818151815260200191508051906020019080838360005b8381101561069757818101518382015260200161067f565b50505050905090810190601f1680156106c45780820380516001836020036101000a031916815260200191505b509250505060405160208183030381529060405280519060200120816040516020018080602001828103825283818151815260200191508051906020019080838360005b83811015610720578181015183820152602001610708565b50505050905090810190601f16801561074d5780820380516001836020036101000a031916815260200191505b5092505050604051602081830303815290604052805190602001201461077257600080fd5b5061077b565b50505b3373ffffffffffffffffffffffffffffffffffffffff1663a34123a760008060006040518463ffffffff1660e01b81526004018084815260200183815260200182815260200193505050506040805180830381600087803b1580156107df57600080fd5b505af192505050801561080b57506040513d60408110156107ff57600080fd5b50805160209091015160015b61095f57610817610ed1565b806108225750610338565b604051806040016040528060038152602001624c4f4b60e81b8152506040516020018080602001828103825283818151815260200191508051906020019080838360005b8381101561087e578181015183820152602001610866565b50505050905090810190601f1680156108ab5780820380516001836020036101000a031916815260200191505b509250505060405160208183030381529060405280519060200120816040516020018080602001828103825283818151815260200191508051906020019080838360005b838110156109075781810151838201526020016108ef565b50505050905090810190601f1680156109345780820380516001836020036101000a031916815260200191505b5092505050604051602081830303815290604052805190602001201461095957600080fd5b50610962565b50505b60408051600080825260208201928390526312439b2f60e21b8352602482018181526044830182905260648301829052608060848401908152835160a48501819052339563490e6cbc95859485949193909260c4850191808383895b838110156109d65781810151838201526020016109be565b50505050905090810190601f168015610a035780820380516001836020036101000a031916815260200191505b5095505050505050600060405180830381600087803b158015610a2557600080fd5b505af1925050508015610a36575060015b610b8657610a42610ed1565b80610a4d5750610338565b604051806040016040528060038152602001624c4f4b60e81b8152506040516020018080602001828103825283818151815260200191508051906020019080838360005b83811015610aa9578181015183820152602001610a91565b50505050905090810190601f168015610ad65780820380516001836020036101000a031916815260200191505b509250505060405160208183030381529060405280519060200120816040516020018080602001828103825283818151815260200191508051906020019080838360005b83811015610b32578181015183820152602001610b1a565b50505050905090810190601f168015610b5f5780820380516001836020036101000a031916815260200191505b50925050506040516020818303038152906040528051906020012014610b8457600080fd5b505b604080516385b6672960e01b81526000600482018190526024820181905260448201819052825133936385b6672993606480820194929392918390030190829087803b158015610bd557600080fd5b505af1925050508015610c0157506040513d6040811015610bf557600080fd5b50805160209091015160015b610d5557610c0d610ed1565b80610c185750610338565b604051806040016040528060038152602001624c4f4b60e81b8152506040516020018080602001828103825283818151815260200191508051906020019080838360005b83811015610c74578181015183820152602001610c5c565b50505050905090810190601f168015610ca15780820380516001836020036101000a031916815260200191505b509250505060405160208183030381529060405280519060200120816040516020018080602001828103825283818151815260200191508051906020019080838360005b83811015610cfd578181015183820152602001610ce5565b50505050905090810190601f168015610d2a5780820380516001836020036101000a031916815260200191505b50925050506040516020818303038152906040528051906020012014610d4f57600080fd5b50610d58565b50505b6040805162461bcd60e51b815260206004820152601160248201527f556e61626c6520746f207265656e746572000000000000000000000000000000604482015290519081900360640190fd5b6040805160008082526020820192839052630251596160e31b8352602482018181526044830182905260016064840181905273fffd8963efd1fc6a506488495d951d5263988d256084850181905260a060a48601908152855160c4870181905273ffffffffffffffffffffffffffffffffffffffff89169763128acb0897879690939092909160e48501918083838b5b83811015610e4d578181015183820152602001610e35565b50505050905090810190601f168015610e7a5780820380516001836020036101000a031916815260200191505b5096505050505050506040805180830381600087803b158015610e9c57600080fd5b505af1158015610eb0573d6000803e3d6000fd5b505050506040513d6040811015610ec657600080fd5b505050565b60e01c90565b600060443d1015610ee157610f74565b600481823e6308c379a0610ef58251610ecb565b14610eff57610f74565b6040513d600319016004823e80513d67ffffffffffffffff8160248401118184111715610f2f5750505050610f74565b82840192508251915080821115610f495750505050610f74565b503d83016020828401011115610f6157505050610f74565b601f01601f191681016020016040529150505b9056fea164736f6c6343000706000a",
  "linkReferences": {},
  "deployedLinkReferences": {}
}